:100000000C942A000C9447000C9447000C94470071
:100010000C9447000C9447000C9447000C94470044
:100020000C9447000C9447000C9447000C94470034
:100030000C9447000C9447000C9447000C94470024
:100040000C9447000C9447000C9447000C94470014
:100050000C94470011241FBECFE5D8E0DEBFCDBF12
:1000600010E0A0E6B0E0EAEDF5E002C005900D92E8
:10007000A238B107D9F721E0A2E8B0E001C01D9293
:10008000A836B207E1F70E9437020C94EB020C94F9
:10009000000092B39E7F92BB92B39D7F92BBEFE92B
:1000A000FFE03197F1F700C0000085BB82B38460A8
:1000B00082BB8FE99FE00197F1F700C0000082B397
:1000C0008B7F82BBEFEDFEE23197F1F700C00000BD
:1000D000089592B3916092BB92B39D7F92BBEFE97A
:1000E000FFE03197F1F700C0000085BB82B3846068
:1000F00082BB8FE99FE00197F1F700C0000082B357
:100100008B7F82BBEFE9FFE03197F1F700C0000081
:1001100008958FEF84BB81B3876081BB8FE99FE037
:100120000197F1F700C0000088E30E9449008CE0CD
:100130000E9449008FE99FE00197F1F700C000009D
:100140000895CF93DF93EC0109C021960E946900C6
:100150008FE99FE00197F1F700C0000088818111CD
:10016000F4CFDF91CF910895CF938FE087BB1ABA78
:10017000C0E080E048C098B3AC2FB0E0FD01E85883
:10018000FF4F21E030E0008002C0220F331F0A94AD
:10019000E2F7292B28BB90E025C029B3692F70E036
:1001A000FB01E458FF4FE0814E2F30E002C035954F
:1001B0002795EA95E2F720FF14C0FB01EE0FFF1F21
:1001C000EE0FFF1FE05AFF4FEA0FFB1F808129B39C
:1001D00030E0042E02C0359527950A94E2F720FD01
:1001E000F6CF9F5F9630C8F298B3A858BF4F21E072
:1001F00030E00C9002C0220F331F0A94E2F72095E2
:10020000292328BBCF5FC43008F4B5CFCF91089520
:10021000FB0180831182089590E001C09F5F292F28
:1002200030E0DB01A20FB31F4C914111F7CF8C934B
:100230002F5F3F4FFB01E20FF31F10820895CF9213
:10024000DF92EF92FF920F931F93CF93DF93F0E033
:10025000E0E040E050E0BA0135C020ED200F2A3048
:10026000F0F4440F551F661F771F6A017B01CC0C09
:10027000DD1CEE1CFF1CCC0CDD1CEE1CFF1C4C0D11
:100280005D1D6E1D7F1D10E000531109012E000C35
:10029000220B330B400F511F621F731F12C02F2FF1
:1002A00030E0E901CC0FDD1FC051DF4F5983488397
:1002B0004C91D901AA51BF4F4C93FF5F40E050E0F1
:1002C000BA01EF5FDC01AE0FB11D0C910111C5CF7A
:1002D000CF2FD0E0FE01EE0FFF1FE051FF4F518303
:1002E00040832091F0003091F100032E000C440B6C
:1002F000550B00E010E055C0F801EA51FF4F808136
:100300008B3249F018F48A3241F149C08D32A1F0A4
:100310008F3281F144C0F8013196EE0FFF1FE0519A
:10032000FF4F80819181092E000CAA0BBB0B280F77
:10033000391F4A1F5B1F33C0F8013196EE0FFF1FB4
:10034000E051FF4F80819181092E000CAA0BBB0B5D
:10035000281B390B4A0B5B0B22C0F8013196EE0FBC
:10036000FF1FE051FF4FA081B1810E94B5029B01A8
:10037000AC0115C0F8013196EE0FFF1FE051FF4FA1
:10038000C080D180C114D10451F00D2C000CEE08B6
:10039000FF08CA01B901A70196010E9493020F5FED
:1003A0001F4F0C171D070CF4A7CFCA01B901DF912D
:1003B000CF911F910F91FF90EF90DF90CF90089514
:1003C000EF92FF920F931F93CF93DF938B019C01CA
:1003D000CB01C0E0D0E006C021966AE070E00E9448
:1003E0007F02CB010097C1F7E12CF12C14C0C901A9
:1003F000B8012AE030E040E050E00E949302F701AB
:10040000EE57FF4F605D6083022F132F242F352F8F
:100410008FEFE81AF80A011511052105310539F7A2
:1004200080E090E00EC0DC01AE57BF4F2C91FE0182
:100430003197E81BF90BEE57FF4F30813C93208337
:1004400001969E01DD2314F42F5F3F4F35952795CC
:100450008217930744F3CE57DF4F188282E890E06B
:10046000DF91CF911F910F91FF90EF900895CF935F
:10047000DF9300D000D0CDB7DEB70E94890019828B
:100480001A821B821C820E94B400182F80ED810FFB
:100490008A3080F4BE016F5F7F4F812F0E94080178
:1004A00064E071E0812F0E940C01CE0101960E9450
:1004B000A100E9CF1B3219F0113689F0E4CFBE015B
:1004C0006F5F7F4F812F0E94080164E071E0812FF0
:1004D0000E940C01CE0101960E94A100D4CF80ECB5
:1004E0000E94490084E091E00E941F01072E000C49
:1004F000880B990B0E94E0010E94A100C4CF97FBDA
:10050000072E16F4009407D077FD09D00E94BD0293
:1005100007FC05D03EF4909581959F4F0895709506
:1005200061957F4F0895A1E21A2EAA1BBB1BFD0106
:100530000DC0AA1FBB1FEE1FFF1FA217B307E407C2
:10054000F50720F0A21BB30BE40BF50B661F771F1A
:10055000881F991F1A9469F76095709580959095FA
:100560009B01AC01BD01CF010895B7FF0C94D102EE
:100570000E94D102821B930B0895AA1BBB1B51E161
:1005800007C0AA1FBB1FA617B70710F0A61BB70B03
:10059000881F991F5A95A9F780959095BC01CD01A8
:1005A00008950E94DC02A59F900DB49F900DA49F1A
:1005B000800D911D11240895A29FB001B39FC00129
:1005C000A39F700D811D1124911DB29F700D811D7F
:0A05D0001124911D0895F894FFCF47
:1005DA0061626364436525663738392F3435362AB4
:1005EA003132332D302E3D2B00010203000102036C
:0205FA000405F6
:00000001FF
