:100000000C942A000C943F000C943F000C943F0089
:100010000C943F000C943F000C943F000C943F0064
:100020000C943F000C943F000C943F000C943F0054
:100030000C943F000C943F000C943F000C943F0044
:100040000C943F000C943F000C943F000C943F0034
:100050000C943F0011241FBECFE5D8E0DEBFCDBF1A
:1000600010E0A0E6B0E0E6E3F2E002C005900D92F9
:10007000AA39B107D9F70E9401010C9419010C9417
:10008000000092B39E7F92BB92B39D7F92BBEFE93B
:10009000FFE03197F1F700C0000085BB82B38460B8
:1000A00082BB8FE99FE00197F1F700C0000082B3A7
:1000B0008B7F82BBEFEDFEE23197F1F700C00000CD
:1000C000089592B3916092BB92B39D7F92BBEFE98A
:1000D000FFE03197F1F700C0000085BB82B3846078
:1000E00082BB8FE99FE00197F1F700C0000082B367
:1000F0008B7F82BBEFE9FFE03197F1F700C0000092
:1001000008958FEF84BB81B3876081BB8FE99FE047
:100110000197F1F700C0000088E30E9441008CE0E5
:100120000E9441008FE99FE00197F1F700C00000B5
:100130000895CF93DF93EC0103C021960E946100E4
:1001400088818111FACFDF91CF910895CF938FE00D
:1001500087BB1ABAC0E080E04BC098B36C2F70E048
:10016000FB01E057FF4F21E030E0008002C0220F8A
:10017000331F0A94E2F7292B28BB90E027C0E9B38C
:10018000292F30E0D901AC56BF4FAC914A2FF0E097
:1001900002C0F595E795AA95E2F7E0FF16C0F901D0
:1001A000EE0FFF1FEE0FFF1FE60FF71FEE0FFF1FF3
:1001B000E05AFF4F808129B330E0042E02C035950C
:1001C00027950A94E2F720FDF6CF9F5F9630B8F2AC
:1001D00098B3FB01E057FF4F21E030E0008002C000
:1001E000220F331F0A94E2F72095292328BBCF5F03
:1001F000C43008F4B2CFCF910895FB0180831182FF
:100200000895CF93DF9300D000D0CDB7DEB70E9422
:10021000810019821A821B821C820E94A600BE01E4
:100220006F5F7F4F0E94FD00CE0101960E949900F2
:06023000F4CFF894FFCFAB
:10023600300031003200330030003100320033002C
:10024600300031003200330030003100320033001C
:10025600300031003200330030003100320033000C
:0A0266000001020300010203040579
:00000001FF
