:100000000C942A000C9447000C9447000C94470071
:100010000C9447000C9447000C9447000C94470044
:100020000C9447000C9447000C9447000C94470034
:100030000C9447000C9447000C9447000C94470024
:100040000C9447000C9447000C9447000C94470014
:100050000C94470011241FBECFE5D8E0DEBFCDBF12
:1000600010E0A0E6B0E0E6E9F2E002C005900D92F3
:10007000A238B107D9F720E0A2E8B0E001C01D9294
:10008000A239B207E1F70E9419010C9449010C94BE
:10009000000092B39E7F92BB92B39D7F92BBEFE92B
:1000A000FFE03197F1F700C0000085BB82B38460A8
:1000B00082BB8FE99FE00197F1F700C0000082B397
:1000C0008B7F82BBEFEDFEE23197F1F700C00000BD
:1000D000089592B3916092BB92B39D7F92BBEFE97A
:1000E000FFE03197F1F700C0000085BB82B3846068
:1000F00082BB8FE99FE00197F1F700C0000082B357
:100100008B7F82BBEFE9FFE03197F1F700C0000081
:1001100008958FEF84BB81B3876081BB8FE99FE037
:100120000197F1F700C0000088E30E9449008CE0CD
:100130000E9449008FE99FE00197F1F700C000009D
:100140000895CF93DF93EC0103C021960E946900CC
:1001500088818111FACFDF91CF910895CF938FE0FD
:1001600087BB1ABAC0E080E048C098B3AC2FB0E0BB
:10017000FD01E858FF4F21E030E0008002C0220F6F
:10018000331F0A94E2F7292B28BB90E025C029B33E
:10019000692F70E0FB01E458FF4FE0814E2F30E003
:1001A00002C035952795EA95E2F720FF14C0FB01C0
:1001B000EE0FFF1FEE0FFF1FE05AFF4FEA0FFB1F6E
:1001C000808129B330E0042E02C0359527950A942A
:1001D000E2F720FDF6CF9F5F9630C8F298B3A8589B
:1001E000BF4F21E030E00C9002C0220F331F0A9471
:1001F000E2F72095292328BBCF5FC43008F4B5CFA0
:10020000CF910895FB0180831182089590E001C091
:100210009F5F292F30E0DB01A20FB31F4C914111EA
:10022000F7CF8C932F5F3F4FFB01E20FF31F10823C
:100230000895CF93DF9300D000D0CDB7DEB70E94F2
:10024000890019821A821B821C820E94AE00182F1C
:1002500080ED810F8A3080F4BE016F5F7F4F812F68
:100260000E9402016AE870E0812F0E940601CE011F
:1002700001960E94A100E9CF1B3239F7BE016F5FE2
:100280007F4F812F0E940201CE0101960E94A100A2
:06029000DCCFF894FFCF63
:1002960061626364436525663738392F3435362AFB
:1002A6003132332D302E3D2B0001020300010203B3
:0202B60004053D
:00000001FF
